:020000040800F2
:100000000807002039020008D3120008A3110008D5
:10001000D11200084D04000801150008000000007E
:10002000000000000000000000000000D7120008DF
:100030004F04000800000000D5120008D912000883
:10004000530200085302000853020008530200083C
:10005000530200085302000853020008530200082C
:10006000530200085302000853020008530200081C
:10007000530200085302000853020008530200080C
:100080005302000853020008530200080000000059
:100090000000000000000000000000005302000803
:1000A00053020008530200085302000853020008DC
:1000B00053020008530200085302000853020008CC
:1000C00053020008530200085302000853020008BC
:1000D0005302000853020008530200080000000009
:1000E00053020008530200085302000800000000F9
:1000F00000000000000000000000000053020008A3
:1001000000000000530200085302000853020008D8
:1001100000000000000000000000000000000000DF
:10012000530200085302000853020008530200085B
:100130005302000800000000000000000000000062
:100140000000000000000000000000005302000852
:10015000530200085302000853020008530200082B
:1001600053020008530200080000000000000000D5
:10017000000000000000000000000000000000007F
:100180000000000053020008000000000000000012
:10019000530200085302000800F002F800F03CF897
:1001A0000AA090E8000C82448344AAF10107DA45D2
:1001B00001D100F031F8AFF2090EBAE80F0013F0E8
:1001C000010F18BFFB1A43F001031847C0130000CA
:1001D000E0130000103A24BF78C878C1FAD852075B
:1001E00024BF30C830C144BF04680C6070470000B1
:1001F0000023002400250026103A28BF78C1FBD830
:10020000520728BF30C148BF0B6070471FB501F0CF
:10021000ABF91FBD10B510BD00F0CFF81146FFF7C8
:10022000F5FF01F07FF900F0EDF803B4FFF7F2FFFE
:1002300003BC00F0F5F80000094880470948004772
:10024000FEE7FEE7FEE7FEE7FEE7FEE7FEE7FEE786
:10025000FEE7FEE704480549054A064B70470000E3
:100260006D1300089901000808010020080700200C
:10027000080300200803002053EA020C00F0698004
:100280002DE9F04B4FF00006002B1FBFB3FA83F5AA
:1002900003FA05F424FA05F65E4012BF1643B2FADB
:1002A00082F502FA05F4C5F120051EBF22FA05FC0D
:1002B00044EA0C04203556EA044C4FEA144418BFB3
:1002C000641C4FF000084FF00009904271EB030CE2
:1002D00039D3002919BFB1FA81F701FA07F6B0FA4C
:1002E00080F700FA07F6C7F120071EBF20FA07FCC7
:1002F00046EA0C062037B6FBF4FCA7EB0507103FD7
:1003000007F01F0BCBF120060CFA0BFB2CFA06F6BC
:1003100044BFB3460026202FA4BF5E464FF0000B1B
:100320005BEA060C08BF4FF0010B19EB0B09ABFBA6
:10033000027C48EB0608C01B06FB02CC0BFB03CC7F
:1003400071EB0C01C1E70B46024641464846BDE849
:10035000F08B13B54FF000004FF00001AFF30080B9
:10036000BDE81C4070474FF0000200B513469446AC
:100370009646203922BFA0E80C50A0E80C50B1F1FD
:100380002001BFF4F7AF090728BFA0E80C5048BF11
:100390000CC05DF804EB890028BF40F8042B08BFAF
:1003A000704748BF20F8022B11F0804F18BF00F8AB
:1003B000012B7047704770477047754600F02CF866
:1003C000AE4605006946534620F00700854618B042
:1003D00020B5FFF73FFFBDE820404FF000064FF08B
:1003E00000074FF000084FF0000B21F00701AC466A
:1003F000ACE8C009ACE8C009ACE8C009ACE8C00989
:100400008D46704710B50446AFF300802046BDE826
:100410001040FFF70ABF000000487047A800002006
:1004200001491820ABBEFEE726000200704700001D
:1004300010B532230522AA21034800F0C5F908B1FE
:10044000002010BD012010BD10000020FEE7704705
:1004500072B6FEE72DE9F84FDFF8B8A100220124BB
:1004600003254FF00F090AF1040BAAF1040E00BF97
:100470000B6804FA02F63340B34273D10F7907F0E8
:100480000307012F01D0022F16D187684FEA4208D7
:1004900005FA08FC27EA0C07D1F80CC00CFA08FC96
:1004A0004CEA070CC0F808C04768B7430E79C6F39A
:1004B000001696403E4346600E79F643B6070DD0CF
:1004C000C768560005FA06FC27EA0C07D1F808C0F1
:1004D0000CFA06FC4CEA070CC0F80CC00E7906F0CA
:1004E0000306022E10D1D60800EB8608D8F820604B
:1004F00057074FEAD76C09FA0CF7BE430F6907FAA2
:100500000CF73743C8F8207006684FEA420C05FA2A
:100510000CF7BE430F7907F0030707FA0CF73743D0
:1005200007604E6816F4403F6DD03B4E376847F485
:1005300080473760366822F0030706F4804600964D
:10054000364E07EB060CDCF8086897073F0F09FAF0
:1005500007F826EA0806DFF8C880404503D14FF0C7
:1005600000081EE04FE0DFF8BC80404502D14FF0AC
:10057000010816E0DFF8B080404502D14FF00208D4
:100580000FE0DFF8A880404502D14FF0030808E0F3
:10059000DFF89C80404502D14FF0040801E04FF0A5
:1005A000070808FA07F848EA0608CCF80888DAF8D5
:1005B00000605746D1F804C09E435FEACC2C00D5BA
:1005C0001E433E60DBF800605F46D1F804C09E43E6
:1005D0005FEA8C2C00D51E433E60DEF80060774653
:1005E000D1F804C09E435FEA8C3C00D51E433E60B8
:1005F000084F083F3E68D1F804C09E435FEACC3CF8
:1006000000D51E433E60521C102AFFF431AFBDE8F6
:10061000F88F0000083C014044380240003001409F
:10062000000002400004024000080240000C0240AA
:100630000010024001488068704700000000002060
:1006400070B5040025D094F83D00002520B984F849
:100650003C50204600F06EF9242084F83D002068CC
:10066000016821F0010101602068016841F4004146
:1006700001602068016821F40041016000F0B4FAD3
:100680004D4A6168914201D84C4900E04C4988428A
:1006900001D2012070BD4B492368B0FBF1F15E68C7
:1006A00026F03F060E435E606368934206D94FF41E
:1006B000967359434FF47A73B1FBF3F12368491CE5
:1006C0001E6A26F03F06314319626168914210D8D4
:1006D0004900401EB0FBF1F2521CC2F30B02042A87
:1006E00001D2042022E0B0FBF1F0401CC0F30B006B
:1006F0001CE0A268F2B301EBC10303EB0116431E39
:10070000B3FBF6F35B1C43F480431B0549D092B363
:1007100001EBC10202EB0111401EB0FBF1F0401CE5
:10072000C0F30B0040F4804040F400402168CA69E7
:100730004CF6FF739A431043C861D4E90710014394
:100740002068026822F0C00211430160D4E903016D
:1007500001432068826848F2FF339A431143816065
:10076000D4E9050108432168CA6822F0FF0210435A
:10077000C86001E00EE016E02068016841F0010168
:1007800001602564202084F83D00256384F83E50F4
:10079000002070BD01EB4106431EB3FBF6F35B1C6A
:1007A000B3E70120C2E701EB4101401EB0FBF1F0CD
:1007B000401CC0F30B00B7E7A086010080841E0038
:1007C00000093D0040420F002DE9FF4F81B08946EE
:1007D0000446FFF72FFF054694F83D004FF0000850
:1007E00020287DD11923012250492046009500F090
:1007F000D9FC002874D194F83C00012870D0012065
:1008000084F83C0020680168C90703D1016841F001
:10081000010101602068016821F400610160242069
:1008200084F83D00002626644148E0624FF0011B39
:1008300020272068016841F4807101600095002242
:1008400059462046049B00F0ADFC50B1206800687A
:10085000C00502D54FF400702064032005B0BDE848
:10086000F08F216809F0FE000861FFF7E3FE2168C0
:10087000054648694969C0F34000C1F380214FF043
:10088000A00A0FE0FFF7D6FE411B0498814200D872
:1008900008B984F83DA0216848694969C0F340005F
:1008A000C1F3802194F83D20A02A02D008B9002984
:1008B000E8D084F83D7020684169C943890716D49F
:1008C000016841F400710160206841698069192361
:1008D000012216492046009500F064FCB8B900E0FA
:1008E00021E084F83D7084F83C600020B6E70168A0
:1008F00041F40071016021686FF480604861192340
:1009000001220A492046009500F04CFC08B1012064
:10091000A4E7039808F1010880458AD384F83D7064
:1009200084F83C60F3E7022098E700000200100022
:100930000000FFFF10B586B0044614216846FFF79B
:1009400012FD13492068884220D112480021026814
:1009500042F002020260006800F002000590C02030
:1009600000901220CDE9010103200390042004909F
:1009700069460948FFF76EFD06481030016841F4EA
:1009800000110160006800F40010059006B010BD71
:1009900000540040303802400004024002488168A0
:1009A0000278114481607047000000200B4810B5A8
:1009B000016841F400710160016841F480610160E7
:1009C000016841F480710160032000F061F80F209C
:1009D00000F006F800F024F8002010BD003C0240B2
:1009E00070B50D4D04464FF47A712878B1FBF0F0E4
:1009F0000A490968B1FBF0F000F0FEFA48B9102C82
:100A000007D200222146501E00F022F800206C6020
:100A100070BD012070BD0000000000200C0000200F
:100A20000A4808B5016841F480410160006800F49B
:100A3000804000900548001F016841F0805101602E
:100A4000006800F08050009008BD0000443802406B
:100A5000F0B40E4B1B680C46C3F30223C3F1070529
:100A6000042D00D90425191D072901D2002300E017
:100A7000DB1E012606FA05F1491E214099409E40E1
:100A8000761E16403143F0BC00F03BBD0CED00E09B
:100A9000064900F0070208684FF6FF03184040EAD5
:100AA0000220034A10430860704700000CED00E08C
:100AB0000000FA052DE9F0470E46050065D0DFF885
:100AC0001481D8F80000F7B200F00700B04207D256
:100AD00088F80070D8F8000000F00700B04254D148
:100AE00028683D4C810712D5400703D5206840F4A3
:100AF000E05020602878000703D5206840F460406B
:100B000020602068A96820F0F00008432060287861
:100B1000C0072DD0304968680839012812D0022852
:100B200013D0032811D00968890700292DDA21681C
:100B300021F0030101432160FFF77CFD814641F272
:100B4000883A0EE009688903EFE709688901ECE754
:100B5000FFF770FDA0EB0901514502D90320BDE864
:100B6000F0872068696800F00C00B0EB810FEFD1CE
:100B7000D8F80010404601F00701B14207D90770CC
:100B8000006800F00700B04201D00120E7E72878B4
:100B9000400705D52068E96820F4E050084320604C
:100BA0002878000706D52068296920F4604040EACB
:100BB000C100206000F038F82168084AC1F3031131
:100BC000515CC8400649086006480068FFF708FF06
:100BD0000020C4E7003C02400838024072150008BB
:100BE0000C00002004000020044805490068096842
:100BF000044AC1F38221515CC84070470C000020B8
:100C00000838024082150008044805490068096850
:100C1000044AC1F34231515CC84070470C000020C7
:100C20000838024082150008154810B5006810F019
:100C30000C02144813D01449042A0FD0082A0ED1EC
:100C40000F4C241F2268236802F03F025B0207D585
:100C50002068C0F38810A0FB010106E0084610BD23
:100C60002168C1F38811A1FB00010023FFF704FBF9
:100C70002168C1F30141491C4900B0FBF1F010BDEE
:100C8000083802400024F400001BB7002DE9F84F9B
:100C900004006ED02078DFF84C93C007A9F104055A
:100CA0004AD009F104000168C1F38101012908D08B
:100CB0000068C0F3810002280AD1D9F80000400280
:100CC00006D52868800337D560680028E1D033E076
:100CD0006068B0F5803F10D0B0F5A02F286810D024
:100CE00020F480302860286820F480202860606824
:100CF000A8B1FFF79FFC06460DE0286840F480305D
:100D0000F4E740F480202860F7E700BFFFF792FC8B
:100D1000801B642873D828688003F7D50CE0FFF7A0
:100D200089FC064605E000BFFFF784FC801B6428B1
:100D3000F0D828688003F7D42078DFF8AC828007E9
:100D40004FF0000A3ED5A748001D016811F00C0FB6
:100D500008D00068C0F3810002280BD1D9F8000048
:100D6000400207D42868800716D5E068012800D122
:100D700012E033E1E068B8B10120C8F80000FFF7E5
:100D800059FC064605E000BFFFF754FC801B022813
:100D9000C0D828688007F7D52868216920F0F800B6
:100DA00040EAC10028600DE0C8F800A0FFF742FC4F
:100DB000064604E0FFF73EFC801B02281FD8286887
:100DC0008007F7D42078000722D5864F87486169CD
:100DD000703771B101210160FFF72CFC064604E079
:100DE000FFF728FC801B022809D838688007F7D550
:100DF0000EE0C0F800A0FFF71DFC064605E082E00B
:100E0000FFF718FC801B02287DD838688007F7D4CC
:100E10002078400768D5DFF8CCB100270BF13C0BF8
:100E2000DBF80000C0000BD4DBF8001041F080516B
:100E3000CBF80010DBF80000012700F08050009094
:100E40006B4E3068C00510D4306840F4807030605C
:100E5000FFF7F0FB009005E0FFF7ECFB0099401A6C
:100E6000022850D83068C005F6D55E4EA0686C36B2
:100E700001280FD00528306810D020F00100306024
:100E8000306820F004003060A068B8B1FFF7D2FBF2
:100E900000900FE0306840F00100F4E740F00400FB
:100EA0003060F7E7FFF7C6FB0099411A41F288303E
:100EB000814266D830688007F4D50EE0FFF7BAFBB0
:100EC000009007E0FFF7B6FB0099411A41F2883025
:100ED000814256D830688007F4D42FB1DBF8001077
:100EE00021F08051CBF80010A069C8B33D49091D1D
:100EF0000968C1F3810102294AD00228504607D06F
:100F0000C8F8600000E03CE0FFF794FB04463BE0DB
:100F10004746C8F86000FFF78DFB064605E000BFB6
:100F2000FFF788FB801B02282BD828688001F7D4A4
:100F3000D4E907010843A16A2E4A490802EB01419E
:100F4000626A41EA8211084394F82C1040EA016178
:100F5000C9F8001001203866FFF76CFB044606E074
:100F60003EE000BFFFF766FB001B022809D8286897
:100F70008001F7D534E000BFFFF75CFB001B0228BF
:100F800002D90320BDE8F88F28688001F4D427E057
:100F90000128F7D0D9F80000E26900F480019142FD
:100FA0001CD1226A00F03F01914217D147F6C0716F
:100FB000626A0140B1EB821F10D1A26A4FF0FF3389
:100FC00000F4403103EB5202B1EB024F06D194F82A
:100FD0002C1000F07060B0EB016F01D00120D1E760
:100FE0000020CFE70438024000004742800E47420D
:100FF000007000400000FFFF10B5401EB0F1807F80
:1010000001D3012010BD4FF0E02460610F21601773
:1010100000F077FA0020A06107202061002010BDB9
:1010200070B5040004D094F83D00002510B106E02E
:10103000012070BD84F83C50204600F023F82420A5
:1010400084F83D002068C16821F40051C160204649
:1010500000F094F92068016921F490410161206851
:10106000416921F02A0141612068C16841F40051C1
:10107000C1602564202084F83D0084F83E000020F3
:1010800070BD000010B586B0044614216846FFF715
:101090006AF914492068884221D113480021026866
:1010A00042F010020260006800F0100005900E4847
:1010B0001438026842F001020260006800F001008A
:1010C00005904FF4C06000900220CDE9010103209B
:1010D00003900720049069460448FFF7BBF906B067
:1010E00010BD0000001001404438024000000240E2
:1010F0002DE9F843044690F83D001F4616460D467C
:1011000020284CD1C5B1BEB194F83C00012846D08E
:10111000012084F83C004FF00008C4F840802120F2
:1011200084F83D00FFF786FAA6848146E684A0682D
:10113000B0F5805F03D004E00120BDE8F8832069AA
:1011400028B12E465FF0000584F83C800EE00026B2
:10115000FAE78021204600F097F9A0B9AEB116F861
:10116000010B21684860E08C401EE084E08C4B4617
:101170004FF0000200970028EBD14FF040012046CD
:1011800000F082F930B10320D7E735F8020BC0F345
:101190000800E6E7202084F83D000020CDE702208B
:1011A000CBE7FEE72DE9F0471E4690460D46044684
:1011B000C1F30747DDF8209008E0701C06D0FFF768
:1011C00039FAA0EB0900B0420FD876B12068012FA0
:1011D00018D0806925EA00000004000C14D000211A
:1011E0004145EAD00020BDE8F087002044F8300FE8
:1011F00020216173A073216941F0200121612073D6
:101200000120F0E74069E5E70121E9E7114808B569
:10121000016841F004010160016801F004010091DE
:10122000016841F080010160016801F080010091D6
:10123000016841F001010160016801F001010091C4
:10124000016841F002010160006800F002000090B6
:1012500008BD0000303802400D4810B50B49016050
:101260000C49416000214FF480428160C0E90312C3
:1012700041618161C1610162FFF7E2F9002803D099
:10128000BDE81040FFF7E4B810BD00000054004076
:1012900010000020A08601000C4810B50A4901602A
:1012A0004FF4E1314160002181600C22C160C0E94E
:1012B00004128161C161FFF7B3FE002803D0BDE8CD
:1012C0001040FFF7C5B810BD0010014064000020B9
:1012D000FEE7FEE770477047FFF760BB30B593B09D
:1012E00030216846FFF73FF814210CA8FFF73BF8C0
:1012F0001C480025016841F080510160006800F041
:10130000805011901848016841F440410160006824
:10131000022400F44040119001200090000401904C
:101320008001CDE90640062008906420CDE909043B
:1013300004200B906846FFF7A9FC08B172B6FEE7DF
:101340000CA90F2081E831004FF48050CDE90F0542
:1013500003210CA8FFF7AEFB002801D072B6FEE710
:1013600013B030BD403802400070004002480168B0
:1013700041F470010160704788ED00E070B50446EB
:1013800000680169E26821F440511143016121695B
:10139000A068E26908436169114308432168CA688B
:1013A00049F20C639A430243CA6020684169A2690A
:1013B00021F440711143416131492068884202D0D3
:1013C0003049884202D1FFF71FFC01E0FFF70CFC17
:1013D000E2690023192164253226B2F5004F6268C4
:1013E00028D0A0FB0101930F9200FEF745FF0146B4
:1013F000B0FBF5F06FF01802504301EB800006EBF4
:101400000010B0FBF5F000F0F002B1FBF5F002EBDC
:101410000012B1FBF5F06FF01803584301EB8000A8
:1014200006EB0010B0FBF5F000F00F00216810444F
:10143000886070BDA0FB010192185B41FEF71CFFA4
:101440000146B0FBF5F00201B1FBF5F06FF01803B7
:10145000584301EB800006EBC000B0FBF5F000F054
:10146000F80002EB4002B1FBF5F0584301EB8000BD
:1014700006EBC000B0FBF5F000F00700D6E7000077
:1014800000100140001401402DE9F0419846174634
:101490000E460446069D27E0681C25D02DB1FFF7B7
:1014A000C9F8A0EB0800A8421ED920680C3050E80B
:1014B000001F21F4D07140E80012002AF5D1206805
:1014C000143050E8001F21F0010140E80012002A0A
:1014D000F5D1202084F83D0084F83E00002084F8F7
:1014E0003C000320BDE8F0812068006836EA000077
:1014F00004D00020B842CFD00020F3E70120F9E764
:10150000FEE70907090E002804DB00F1E02080F85F
:101510000014704700F00F0000F1E02080F8141D67
:1015200070470000FFF742FAFFF7D8FEFFF76EFEA4
:10153000FFF792FEFFF7B0FEFEF77AFF0028FBD11F
:10154000FF23132202A10748FFF7D2FDF4E70000B2
:1015500062713237343431206973206572726F7270
:10156000200D0A00640000204FF04070E1EE100AE8
:10157000704700000000000000000102030406079D
:10158000080900000000010203040000AC15000877
:101590000000002010000000D4010008BC15000865
:1015A00010000020F8060000F00100080100000013
:0C15B00010000000000000000024F40007
:040000050800019955
:00000001FF
